:020000040800F2
:1000000000500020C11D0008051D00080B1D000840
:10001000111D0008171D00081D1D0008000000002C
:10002000000000000000000000000000231D000888
:100030002F1D0008000000003B1D0008471D0008A0
:10004000091E0008091E0008091E0008091E0008F4
:10005000091E0008091E0008091E0008091E0008E4
:10006000091E0008091E0008091E0008091E0008D4
:10007000091E0008091E0008091E0008091E0008C4
:10008000091E0008091E0008091E0008091E0008B4
:10009000551D0008091E0008091E0008691D0008FA
:1000A000091E0008091E0008091E0008091E000894
:1000B000791D00088D1D0008091E0008091E000892
:1000C000091E0008091E0008091E0008091E000874
:1000D000091E0008091E0008A11D0008091E0008CD
:1000E000091E0008091E0008091E00080000000083
:1000F0000000000000000000000000000000000000
:0C01000000000000000000005FF808F1A3
:10010C0010B5054C237833B9044B13B10448AFF345
:10011C0000800123237010BD80010020000000002E
:10012C005CAF000808B5034B1BB103490348AFF3A0
:10013C00008008BD00000000840100205CAF0008B6
:10014C0080B588B000AF78600B46FB7002F00CF9FC
:10015C0002F040F900233B617B68BB61FB78FB61DB
:10016C0007F10C0207F110031146184602F010FAC1
:10017C0002F04CF902F01EF900BF2037BD4680BDDD
:10018C00B0B582B000AF7860396002F0EDF802F0E3
:10019C0021F93B681B889BB200221C46154622465F
:1001AC002B467968012002F06FF802F02FF902F06B
:1001BC0001F900BF0837BD46B0BD80B483B000AFB5
:1001CC00786039607B681B689AB23B681A8000BF04
:1001DC000C37BD4680BC704790B589B006AF01F0B6
:1001EC000FFE00F0E3FA00F007FC00F039FB00F022
:1001FC008BFB00F0D7FB0AF0B5F94FF4FA7001F065
:10020C0061FE0122A349A44805F061FCA34B4922DD
:10021C001A7001224FF40051A14802F0E5FB0122B3
:10022C004FF480419F4802F0DFFB0023BB71012398
:10023C007B710023FB71994B1B78303B192BFAD83F
:10024C0001A252F823F000BF8F030008AD03000891
:10025C00E503000835040008D10400084B0600082B
:10026C0093060008430200084302000843020008FA
:10027C00430200084302000843020008430200083E
:10028C00430200084302000843020008430200082E
:10029C004302000843020008430200081507000847
:1002AC00430200084302000843020008BD02000894
:1002BC007D4B1B78012B0AD102E07C4800F006FD37
:1002CC007B4B1B78442BF8D1774B00221A70784B60
:1002DC001B78442B13D100F061FC00F0ABFC0346FF
:1002EC00DAB2744B1A70734B1B78412B03D06B4BE7
:1002FC0045221A7032E2694B30221A702EE26C4B96
:10030C001B78522B2FD100F013FC03463B713B7929
:10031C00002B21D1614B49221A7000224FF400515D
:10032C00604802F061FB00224FF480515D4802F0FE
:10033C005BFB00224FF400415A4802F055FB0022AF
:10034C004FF48071574802F04FFB594B00221A7042
:10035C00554B00221A7001E2504B49221A70544B33
:10036C0052221A70FAE1504B1B78002B40F0F681A8
:10037C004F4B1B78002B40F0F181484B49221A70EF
:10038C00ECE14D4B6C4603F1100207CA84E8070000
:10039C000FCB00F073FD0346DAB2404B1A70E0E16C
:1003AC0000F0A6FD454B1B681946434B08220492EE
:1003BC0003916C4603F1100207CA84E807000FCBC7
:1003CC0000F012FE354B49221A70394B00221A707C
:1003DC00354B00221A70C4E1374B6C4603F1100206
:1003EC0007CA84E807000FCB00F0BAFD01224FF4D6
:1003FC0000412C4802F0F8FA2F4B072204920222FB
:10040C0003926C4603F1100207CA84E807000FCB75
:10041C0000F0EAFD214B49221A70254B00221A707C
:10042C00214B00221A709CE1254B1B78184600F0DA
:10043C00BDFD0346BB71224ABB791370204B1B7860
:10044C00012B1DD100224FF48051164802F0CCFA3A
:10045C00194B07220492002203926C4603F11002FE
:10046C0007CA84E807000FCB00F0BEFD0B4B34220B
:10047C001A700F4B00221A700B4B00221A7070E18D
:10048C00064B49221A700A4B00221A70064B0022A6
:10049C001A7066E1B80200202C0200206E030020C6
:1004AC0000100140000C0140B60200207002002038
:1004BC00B702002000000020400300205C03002055
:1004CC00A5030020A74B1B68002B17D1A64B0022BD
:1004DC001A60A44B01221A60A44B00221A60A44B90
:1004EC0000221A60A34804F0ADFCA34B01221A7041
:1004FC00A24B00221A70A24B00221A70A14B1B783F
:10050C00462B53D100224FF400519F4802F06CFA55
:10051C009E4B1B68012B31D1994B1B78002B2DD195
:10052C000023FB710AE0FA79FB79994951F82220F2
:10053C00984941F82320FB790133FB71FB79092B96
:10054C00F1D9954B43220492924A03926C4603F1E3
:10055C00100207CA84E807000FCB00F045FD8B4B57
:10056C0000221A604FF480718C4802F055FA8C4BC3
:10057C0034221A70814B00221A70F1E0804B1B78E8
:10058C00012B0FD100224FF40041864802F02CFAC7
:10059C00784804F0A9FC012001F094FC804B49221E
:1005AC001A70DDE07E4B34221A70D9E0754B1B7843
:1005BC004D2B40F0D58000BF744B1B68002BFBD03B
:1005CC004FF48071754802F027FA704B00221A60C4
:1005DC000023FB710AE0FA79FB796D4951F822206E
:1005EC006C4941F82320FB790133FB71FB79092B12
:1005FC00F1D9694B43220492664A03926C4603F18B
:10060C00100207CA84E807000FCB00F0EDFC0023B2
:10061C00FB7107E0FB795F4A002142F82310FB795C
:10062C000133FB71FB79092BF4D95D4B49221A700C
:10063C00524B00221A70524B00221A7090E0012289
:10064C004FF48071554802F0CFF9534B432204927A
:10065C00504A03926C4603F1100207CA84E8070063
:10066C000FCB00F0C1FC00224FF480714B4802F01C
:10067C00BBF94B4B49221A70404B00221A70404B6D
:10068C0000221A706DE0484B1B78184601F064F894
:10069C0003467B71444A7B7913707B79002B23D101
:1006AC0001224FF480513F4802F09EF900224FF492
:1006BC0080713A4802F098F9374B072204920022D5
:1006CC0003926C4603F1100207CA84E807000FCBB3
:1006DC0000F08AFC324B49221A70284B00221A7007
:1006EC00274B00221A703CE000224FF480512D4819
:1006FC0002F07AF92A4B49221A70204B00221A7008
:10070C001F4B00221A702CE001224FF40051254897
:10071C0002F06AF900224FF40041224802F064F919
:10072C0000224FF480511F4802F05EF91A4B082248
:10073C000492002203926C4603F1100207CA84E86B
:10074C0007000FCB00F050FC154B49221A700B4BD5
:10075C0000221A700A4B00221A7002E000BF6AE5F0
:10076C0000BF68E5700300203C030020D402002089
:10077C00D0020020E401002038030020B702002042
:10078C00B6020020C602002000100140CC0200205E
:10079C0010030020E8020020400300200008014064
:1007AC006E030020000C0140A503002080B594B01E
:1007BC0000AF07F128032822002118460AF0C0FBDD
:1007CC0007F1140300221A605A609A60DA601A6109
:1007DC003B1D00221A605A609A60DA600123BB62EA
:1007EC004FF48033FB6200233B630123BB63022382
:1007FC007B644FF48033BB644FF4E013FB6407F16C
:10080C002803184603F0FEFD0346002B01D001F02F
:10081C007FF90F237B610223BB610023FB614FF443
:10082C0080633B6200237B6207F1140302211846AC
:10083C0004F06AF80346002B01D001F069F910238B
:10084C007B6000233B613B1D184604F0F5F9034621
:10085C00002B01D001F05CF900BF5037BD4680BDC4
:10086C0080B58CB000AF07F10C0324220021184690
:10087C000AF066FB3B1D00221A605A60214B4FF0B8
:10088C0080421A601F4B00225A601E4B00229A6055
:10089C001C4B4FF6FF72DA601A4B00221A61194B8F
:1008AC0000229A610323FB6000233B6101237B61DF
:1008BC000023BB610F23FB6100233B6201237B629E
:1008CC000023BB620F23FB6207F10C0319460D4892
:1008DC0004F038FB0346002B01D001F019F900237A
:1008EC007B600023BB603B1D1946064805F032F8BF
:1008FC000346002B01D001F00BF900BF3037BD4689
:10090C0080BD00BF9C01002080B586B000AF07F110
:10091C00080300221A605A609A60DA603B46002293
:10092C001A605A601D4B1E4A1A601C4B47225A60B3
:10093C001A4B00229A60194B40F2E732DA60174BDF
:10094C0000221A61154B00229A61144804F02AFA0D
:10095C000346002B01D001F0DBF84FF48053BB6051
:10096C0007F1080319460D4804F0F9FD0346002B66
:10097C0001D001F0CDF800233B6000237B603B46A7
:10098C001946064804F0E6FF0346002B01D001F09F
:10099C00BFF800BF1837BD4680BD00BFE401002082
:1009AC000004004080B500AF114B124A1A60104B86
:1009BC004FF4E1325A600E4B00229A600C4B00222D
:1009CC00DA600B4B00221A61094B0C225A61084B5E
:1009DC0000229A61064B0022DA61054805F02AF8DC
:1009EC000346002B01D001F093F800BF80BD00BF7F
:1009FC002C0200200044004080B588B000AF07F105
:100A0C00100300221A605A609A60DA60434B9B69AB
:100A1C00424A43F010039361404B9B6903F010036F
:100A2C00FB60FB683D4B9B693C4A43F020039361A0
:100A3C003A4B9B6903F02003BB60BB68374B9B6947
:100A4C00364A43F004039361344B9B6903F004036F
:100A5C007B607B68314B9B69304A43F008039361A0
:100A6C002E4B9B6903F008033B603B6800224FF45C
:100A7C0000512B4801F0B8FF00224FF47041294877
:100A8C0001F0B2FF00224FF48071274801F0ACFF57
:100A9C004FF400533B6101237B610023BB610223B4
:100AAC00FB6107F1100319461D4801F019FE4FF4C4
:100ABC0070433B6101237B610023BB610223FB611B
:100ACC0007F110031946174801F00AFE4FF4807322
:100ADC003B6101237B610023BB610223FB6107F1B6
:100AEC0010031946104801F0FBFD4FF400733B61F5
:100AFC000E4B7B610023BB6107F1100319460A48BA
:100B0C0001F0EEFD00220021172001F0D6FA17208B
:100B1C0001F0EFFA00BF2037BD4680BD0010024047
:100B2C0000100140000C01400008014000002110A1
:100B3C0080B582B000AF0023FB71134B00221A600A
:100B4C000023FB7112E0FB79104A002142F82310BC
:100B5C00FB790F4A002142F823100E4B1B680E4AFA
:100B6C00002142F82310FB790133FB71FB79092B2F
:100B7C00E9D9002000F0F0FD0346BB71BB791846A3
:100B8C000837BD4680BD00BF5C030020E802002092
:100B9C0074030020A00300201003002080B483B055
:100BAC0000AF0023FB71204B1B781A461F4B1A60B9
:100BBC001D4B5B781A461D4B5A601B4B9B781A4693
:100BCC001A4B9A60184BDB781A46184BDA60164BA6
:100BDC001B791A46154B1A610BE0FB790533124A47
:100BEC00D25CFB791146124A42F82310FB7901338F
:100BFC00FB71FA790D4B1B699A42EEDBFB790533DD
:100C0C00094AD35C1A46094B5A61FB790633064AEA
:100C1C00D35C1A46054B9A610023FB7100BF0C375D
:100C2C00BD4680BC704700BFBC02002040030020C2
:100C3C00D802002098B500AF204B5C69204800F02A
:100C4C00EDFD03469C4201D0302335E01B4B9B68E5
:100C5C00FF2B03DC194B9B68002B06DA4FF4005179
:100C6C00184801F0D9FE332326E0144BDB68022B25
:100C7C0005D1124B1B69002B01DA35231CE00F4BFD
:100C8C00DB68062B01DD362316E00C4BDB68022BF0
:100C9C0005D10D4B5B68002B01DC37230CE0074BB7
:100CAC001B680A2B01D0382306E0044B9B690F2BE1
:100CBC0001D0392300E04123184698BD40030020A1
:100CCC00BC02002000100140D802002080B582B088
:100CDC0000AF7860634B1B68002B0AD17B681A78D5
:100CEC00614B1A705F4B01221A60604B37221A70ED
:100CFC00B3E05E4B1B78492B00F0AC805B4B1B7850
:100D0C00373B0D2B00F2A28001A252F823F000BF5A
:100D1C00550D0008650D0008750D0008590E0008EA
:100D2C00590E0008590E0008590E0008590E0008FB
:100D3C00590E0008590E0008850D0008B90D000861
:100D4C00F90D0008270E00087B685A78464B5A703C
:100D5C00464B38221A7080E07B689A78424B9A7026
:100D6C00424B39221A7078E07B68DA783E4BDA70A5
:100D7C003E4B41221A7070E07B6804331B78002BC9
:100D8C0007D07B681A79384B1A71384B42221A708B
:100D9C0062E07B6804331B78002B5DD17B681A7989
:100DAC00314B1A71314B43221A7055E0304B1B6892
:100DBC0005331A467B681A442D4B1B680533117892
:100DCC00294AD1542A4B1B680133294A1360264BFC
:100DDC001B791A46264B1B689A4203DD234B422291
:100DEC001A703AE0214B43221A7036E0204B1B68F4
:100DFC0005331A467B681A441D4B1B680533117862
:100E0C00194AD154184800F009FD0346DAB2194BBF
:100E1C001A70164B44221A701FE0154B1B680633D0
:100E2C001A467B681A44124B1B68063311780E4A1B
:100E3C00D154114B44221A700D4B00221A60094BED
:100E4C0000221A60094B49221A7006E0074B49220E
:100E5C001A7002E000BF00E000BF00BF0837BD46BB
:100E6C0080BD00BFA8030020BC0200206F0300203F
:100E7C00C80200206C030020B702002084B090B49C
:100E8C0000AF07F1080484E80F007B69012B03D144
:100E9C00164B31221A7021E07B69022B03D1134BC4
:100EAC0032221A701AE07B69032B03D10F4B3322C9
:100EBC001A7013E07B69042B03D10C4B34221A708B
:100ECC000CE07B69052B03D1084B35221A7005E029
:100EDC007B69062B02D1054B36221A70034B1B780B
:100EEC001846BD4690BC04B0704700BF6E0300208E
:100EFC0080B582B000AF0023FB80154B1B69012B22
:100F0C0011D101211348FFF71BF9134B1B689BB23E
:100F1C00FB80FB881A46114B1A60BB1D19460D4805
:100F2C00FFF72EF910E00A4B01221A61BB1D19467E
:100F3C000848FFF742F9FB884FF6FF72934203D043
:100F4C00FB881A46054B1A6000BF0837BD4680BDAA
:100F5C004003002000F00008D80200205C030020B1
:100F6C0084B090B400AF07F1080484E80F000C4B78
:100F7C005B68DAB20B4B1A70094B1B68012B02D061
:100F8C00022B04D007E0084B46221A7003E0064BF4
:100F9C004D221A7000BF00BFBD4690BC04B0704714
:100FAC00D802002039030020C602002080B584B08E
:100FBC0000AF0346FB71FB79002B08D13C2109489B
:100FCC0004F062F80346FB730A2000F07BFFFB7B06
:100FDC00002B01D1012300E0002318461037BD4639
:100FEC0080BD00BF9C01002084B02DE9F04F8BB078
:100FFC0000AF07F1500686E80F006B467B6097F850
:10100C0070603346013B3B62F3B20022BB60FA6076
:10101C004FF000024FF00003F968CB00D7E9020152
:10102C00844643EA5C730146CA00F3B200229A4636
:10103C0093464FF000024FF000034FEACB0343EA14
:10104C005A734FEACA0233460733DB08DB00ADEBB9
:10105C00030D6B460033FB6197F870100B46013B98
:10106C00BB61CBB20022984691464FF000024FF084
:10107C0000034FEAC90343EA58734FEAC802CBB2E4
:10108C0000221C4615464FF000024FF00003EB0007
:10109C0043EA5473E2000B460733DB08DB00ADEB8D
:1010AC00030D6B4600337B61022387F82530002348
:1010BC0087F82630002387F827309E4B1B78313B6E
:1010CC00142B00F23C8301A252F823F02D110008DE
:1010DC0089110008D31100081D1200081113000813
:1010EC00591300084B1700084B1700084B17000842
:1010FC004B1700084B1700084B1700084B1700083C
:10110C004B1700084B1700084B1700084B1700082B
:10111C004B1700084B1700084B170008A5130008C5
:10112C003B6DDAB2FB691A70834B1B68DAB2FB6950
:10113C005A707B6DDAB2FB699A70FB6DDAB2FB699F
:10114C00DA703B6EDAB2FB691A713B6E002B04DD70
:10115C00794B1B68DAB2FB695A71F86900F05EFBD7
:10116C000346DAB2FB699A71BB6EDAB2FB69DA71CB
:10117C00B3B21946F86909F0D3FAE0E23B6DDAB282
:10118C00FB691A706C4B1B68DAB2FB695A707B6D89
:10119C00DAB2FB699A70FB6DDAB2FB69DA70FB6943
:1011AC0000221A71F86900F039FB0346DAB2FB69C8
:1011BC005A71BB6EDAB2FB699A71B3B21946F8690F
:1011CC0009F0AEFABBE23B6DDAB2FB691A705A4B0E
:1011DC001B68DAB2FB695A707B6DDAB2FB699A70E4
:1011EC00FB690322DA703B6EDAB2FB691A71F8699B
:1011FC0000F014FB0346DAB2FB695A71BB6EDAB22B
:10120C00FB699A71B3B21946F86909F089FA96E24A
:10121C003B6DDAB2494B1A70474B1B68DAB2474B3D
:10122C005A707B6DDAB2454B9A70444B0422DA70DB
:10123C00424B3C221A71002387F826304CE097F879
:10124C0026303F4A52F823309AB23E4B1A8097F818
:10125C0026309B00FA6E13441B683B4A1360022332
:10126C0087F8253013E097F825305A1E97F8273069
:10127C0005333449895C314AD15497F8273001330E
:10128C0087F8273097F82530013B87F8253097F8F9
:10129C002530002BE7D1042387F8253013E097F88D
:1012AC0025305A1E97F8273005332749895C234A85
:1012BC00D15497F82730013387F8273097F8253029
:1012CC00013B87F8253097F82530002BE7D197F8AC
:1012DC002630013387F8263097F82630092BAED903
:1012EC00164800F09BFA0346DAB2144B83F84120FF
:1012FC00BB6EDAB2114B83F8422043210F4809F040
:10130C000FFA1CE20D4B0A221A700C4B0522DA70F4
:10131C000A4800F083FA0346DAB2084B83F84120FE
:10132C00064B0F2283F842204321044809F0F8F9B8
:10133C0005E200BF6E0300205C030020AC0300201C
:10134C007403002068030020640300203B6DDAB2B4
:10135C00FB691A70984B1B68DAB2FB695A707B6D8B
:10136C00DAB2FB699A70FB6DDAB2FB69DA703B6E2C
:10137C00DAB2FB691A71F86900F050FA0346DAB276
:10138C00FB695A71BB6EDAB2FB699A71B3B219463A
:10139C00F86909F0C5F9D2E1884B1B78302B2BD1B9
:1013AC003B6DDAB2FB691A70834B1B68DAB2FB69CE
:1013BC005A707B6DDAB2FB699A70FB6D5BB263F0AD
:1013CC000F035BB2DAB2FB69DA70FB6901221A71A6
:1013DC00FB6900225A71F86900F020FA0346DAB270
:1013EC00FB699A71BB6EDAB2FB69DA71B3B219465A
:1013FC00F86909F095F9A1E1704B1B78312B2BD1D1
:10140C003B6DDAB2FB691A706B4B1B68DAB2FB6985
:10141C005A707B6DDAB2FB699A70FB6D5BB263F04C
:10142C000F035BB2DAB2FB69DA70FB6901221A7145
:10143C00FB6901225A71F86900F0F0F90346DAB23F
:10144C00FB699A71BB6EDAB2FB69DA71B3B21946F9
:10145C00F86909F065F971E1584B1B78322B26D1EC
:10146C003B6DDAB2FB691A70534B1B68DAB2FB693D
:10147C005A707B6DDAB2FB699A70FB69F122DA70F3
:10148C00FB6901221A71FB6902225A71F86900F09A
:10149C00C5F90346DAB2FB699A71BB6EDAB2FB6925
:1014AC00DA71B3B21946F86909F03AF946E1434BDF
:1014BC001B78332B25D13B6DDAB2FB691A703E4B8E
:1014CC001B68DAB2FB695A707B6DDAB2FB699A70F1
:1014DC00FB69F122DA70FB6901221A71FB690322A4
:1014EC005A71F86900F09AF90346DAB2FB699A71FD
:1014FC00FB690F22DA71B3B21946F86909F010F9D9
:10150C001CE12E4B1B78342B2BD13B6DDAB2FB69D3
:10151C001A70294B1B68DAB2FB695A707B6DDAB210
:10152C00FB699A70FB6D5BB263F00F035BB2DAB2CE
:10153C00FB69DA70FB6901221A71FB6904225A718A
:10154C00F86900F06BF90346DAB2FB699A71BB6E6D
:10155C00DAB2FB69DA71B3B21946F86909F0E0F84E
:10156C00ECE0164B1B78352B2AD13B6DDAB2FB69BC
:10157C001A70114B1B68DAB2FB695A707B6DDAB2C8
:10158C00FB699A70FB69F222DA70FB6901221A710D
:10159C00FB6905225A71F86900F040F90346DAB28A
:1015AC00FB699A71BB6EDAB2FB69DA71B3B2194698
:1015BC00F86909F0B5F8C1E05C03002000000020D8
:1015CC00634B1B78362B2BD13B6DDAB2FB691A704F
:1015DC00604B1B68DAB2FB695A707B6DDAB2FB693F
:1015EC009A70FB6D5BB263F00F035BB2DAB2FB690E
:1015FC00DA70FB6901221A71FB6906225A71F869CB
:10160C0000F00CF90346DAB2FB699A71BB6EDAB2E0
:10161C00FB69DA71B3B21946F86909F081F88DE00B
:10162C004B4B1B78372B2BD13B6DDAB2FB691A7005
:10163C00484B1B68DAB2FB695A707B6DDAB2FB69F6
:10164C009A70FB6D5BB263F00F035BB2DAB2FB69AD
:10165C00DA70FB6901221A71FB6907225A71F86969
:10166C0000F0DCF80346DAB2FB699A71BB6EDAB2B1
:10167C00FB69DA71B3B21946F86909F051F85DE00B
:10168C00334B1B78382B2AD1FB690A221A70314B49
:10169C001B68DAB2FB695A707B6DDAB2FB699A701F
:1016AC00FB6D5BB263F00F035BB2DAB2FB69DA700D
:1016BC00FB6901221A71FB6908225A71F86900F062
:1016CC00ADF80346DAB2FB699A71BB6EDAB2FB690C
:1016DC00DA71B3B21946F86909F022F82EE01C4B06
:1016EC001B78392B2AD13B6DDAB2FB691A70194B76
:1016FC001B68DAB2FB695A707B6DDAB2FB699A70BF
:10170C00FB6D5BB263F00F035BB2DAB2FB69DA70AC
:10171C00FB6901221A71FB6909225A71F86900F000
:10172C007DF80346DAB2FB699A71BB6EDAB2FB69DB
:10173C00DA71B3B21946F86908F0F2FF00BFD7F8B6
:10174C0004D000BF2C37BD46BDE8F04F04B0704745
:10175C00000000205C03002080B584B000AF03467D
:10176C00FB710023FB73FB79012B10D13C21214829
:10177C0003F038FD03461A461F4B1A701F4803F03E
:10178C00B3FB03461A461E4B1A600023FB710A205A
:10179C0000F098FB184B1B78002B26D1184B1B68BC
:1017AC00002B22D10023FB7317E0FB7B154A002191
:1017BC0042F82310FB7B144A002142F82310FB7BD8
:1017CC00124A002142F82310114B00221A60114BCF
:1017DC0000221A70FB7B0133FB73FB7B092BE4D9D2
:1017EC000D4B00221A70002300E00123184610371D
:1017FC00BD4680BD9C010020EF030020E4010020C9
:10180C0070030020E8020020100300207403002065
:10181C00CC020020B60200209C03002080B485B0CE
:10182C0000AF78607B6804331B78002B02D1544BDB
:10183C0007221A707B6804331B78012B02D1504BA2
:10184C0008221A707B6804331B78022B02D14C4B94
:10185C0009221A707B6804331B78042B02D1484B85
:10186C000B221A707B6804331B78052B02D1444B76
:10187C000C221A707B6804331B78062B02D1404B68
:10188C000D221A707B6804331B78072B02D13C4B5A
:10189C000E221A707B6804331B78082B02D1384B4C
:1018AC000F221A707B6804331B78092B02D1344B3E
:1018BC0010221A707B6804331B780A2B02D1304B30
:1018CC0011221A707B6804331B780C2B02D12C4B21
:1018DC0013221A707B6804331B780E2B02D1284B11
:1018EC0015221A707B6804331B78172B02D1244BFA
:1018FC001D221A707B6804331B78202B02D1204BDD
:10190C0026221A707B6804331B78282B02D11C4BBF
:10191C002F221A707B6804331B783C2B02D1184B96
:10192C0043221A70174B00221A800123FB600DE032
:10193C00FB687A6813441B789AB2124B1B881344C9
:10194C009AB2104B1A80FB680133FB600C4B1B786E
:10195C00023BFA689A42EBDB0A4B1B88DBB2DB4397
:10196C00DAB2094B1A70084B1B780133DAB2064B0A
:10197C001A70054B1B7818461437BD4680BC70474F
:10198C006D0300206A0300206C03002080B483B038
:10199C0000AF7860144B1B78012B1FD1134B1B68C5
:1019AC001B6803F01003102B0CBF01230023DBB2C8
:1019BC001A460F4B1A700E4B1B78002B05D10D4B92
:1019CC001B6801330B4A136008E0094B1B78012B91
:1019DC0004D1084B1B68013B064A136000BF0C374F
:1019EC00BD4680BC704700BF380300209C0100201E
:1019FC00A40300203C03002080B582B000AF7860C7
:101A0C00084B1B78002B09D1074B1B781846FFF7A6
:101A1C005DF901220449054804F059F800BF083764
:101A2C00BD4680BDB7020020B80200202C02002069
:101A3C0080B483B000AF7860204B1B6801331F4A21
:101A4C0013601F4B1B781A461C4B1B689A4225D1FE
:101A5C001C4B00221A701C4B1B7819461B4B1B6825
:101A6C001B4A42F821301B4B1A68144B1B68134459
:101A7C00184A1360144B1B781946164B1B68164AF0
:101A8C0042F82130104B1B780133DAB20E4B1A702E
:101A9C000A4B00221A600B4B01221A700A4B1B785E
:101AAC000A2B05D10D4B01221A60074B00221A702C
:101ABC0000BF0C37BD4680BC704700BFD002002071
:101ACC0039030020380300209C0300203C03002035
:101ADC0010030020D402002074030020CC0200204C
:101AEC0080B483B000AF0346FB80FB88B3F5007F66
:101AFC0005D1054B49221A70044B52221A7000BFB3
:101B0C000C37BD4680BC70476E030020B702002026
:101B1C0080B400AF72B600BFFEE7000080B485B0A1
:101B2C0000AF154B9B69144A43F001039361124BB0
:101B3C009B6903F00103BB60BB680F4BDB690E4A6A
:101B4C0043F08053D3610C4BDB6903F080537B6013
:101B5C007B680A4B5B68FB60FB6823F0E063FB600F
:101B6C00FB6843F00073FB60044AFB68536000BFE2
:101B7C001437BD4680BC7047001002400000014085
:101B8C0080B588B000AF786007F1100300221A60AE
:101B9C005A609A60DA607B681B68B3F1804F2BD176
:101BAC00174BDB69164A43F00103D361144BDB6915
:101BBC0003F00103FB60FB68114B9B69104A43F077
:101BCC00040393610E4B9B6903F00403BB60BB6879
:101BDC0003233B6100237B610023BB6107F11003EE
:101BEC001946084800F07CFD002200211C2000F062
:101BFC0064FA1C2000F07DFA00BF2037BD4680BD82
:101C0C00001002400008014080B584B000AF78603D
:101C1C007B681B680D4A934213D10D4BDB690C4A50
:101C2C0043F00203D3610A4BDB6903F00203FB6050
:101C3C00FB68002200211D2000F03FFA1D2000F05F
:101C4C0058FA00BF1037BD4680BD00BF00040040ED
:101C5C000010024080B588B000AF786007F1100327
:101C6C0000221A605A609A60DA607B681B681F4A0F
:101C7C00934237D11E4BDB691D4A43F40033D361C9
:101C8C001B4BDB6903F40033FB60FB68184B9B694F
:101C9C00174A43F004039361154B9B6903F004034B
:101CAC00BB60BB6804233B6102237B610323FB61A4
:101CBC0007F1100319460F4800F012FD08233B6191
:101CCC0000237B610023BB6107F11003194609480F
:101CDC0000F006FD00220021262000F0EEF926205F
:101CEC0000F007FA00BF2037BD4680BD004400401D
:101CFC00001002400008014080B400AFFEE780B441
:101D0C0000AFFEE780B400AFFEE780B400AFFEE7A3
:101D1C0080B400AFFEE780B400AF00BFBD4680BC0E
:101D2C00704780B400AF00BFBD4680BC704780B424
:101D3C0000AF00BFBD4680BC704780B500AF00F05F
:101D4C00A5F800BF80BD000080B500AF024800F0D0
:101D5C00C6FF00BF80BD00BFB010002080B500AF33
:101D6C004FF4007000F072FE00BF80BD80B500AF74
:101D7C00024803F0ECFA00BF80BD00BF9C010020BC
:101D8C0080B500AF024803F0E2FA00BF80BD00BF8F
:101D9C00E401002080B500AF024803F0C9FE00BF8B
:101DAC0080BD00BF2C02002080B400AF00BFBD4638
:101DBC0080BC70470C480D490D4A002302E0D458F2
:101DCC00C4500433C4188C42F9D30A4A0A4C002379
:101DDC0001E013600432A242FBD3FFF7E5FF09F0E8
:101DEC007DF8FEF7F9F97047000000208001002013
:101DFC00ECAF000880010020BC150020FEE70000BD
:101E0C0080B500AF084B1B68074A43F01003136002
:101E1C00032000F047F90F2000F008F8FFF77EFED2
:101E2C000023184680BD00BF0020024080B582B060
:101E3C0000AF7860124B1A68124B1B7819464FF49E
:101E4C007A73B3FBF1F3B2FBF3F3184600F05FF9CE
:101E5C000346002B01D001230EE07B680F2B0AD820
:101E6C00002279684FF0FF3000F027F9064A7B68B2
:101E7C001360002300E0012318460837BD4680BDDF
:101E8C00040000200C0000200800002080B400AFEB
:101E9C00054B1B781A46054B1B681344034A136009
:101EAC0000BFBD4680BC70470C000020F003002032
:101EBC0080B400AF024B1B681846BD4680BC70470F
:101ECC00F003002080B584B000AF7860FFF7F0FF1E
:101EDC00B8607B68FB60FB68B3F1FF3F05D00A4B31
:101EEC001B781A46FB681344FB6000BFFFF7E0FF4A
:101EFC000246BB68D31AFA689A42F7D800BF00BFF3
:101F0C001037BD4680BD00BF0C00002080B485B0EA
:101F1C0000AF78607B6803F00703FB600C4BDB6859
:101F2C00BB60BA684FF6FF031340BB60FB681A0234
:101F3C00BB68134343F0BF6343F40033BB60044AF4
:101F4C00BB68D36000BF1437BD4680BC704700BF70
:101F5C0000ED00E080B400AF044BDB681B0A03F01B
:101F6C0007031846BD4680BC704700BF00ED00E07B
:101F7C0080B483B000AF0346FB7197F90730002B98
:101F8C000BDBFB7903F01F02064997F907305B095D
:101F9C00012000FA02F241F8232000BF0C37BD46A5
:101FAC0080BC704700E100E080B483B000AF034612
:101FBC003960FB7197F90730002B0ADB3B68DAB20A
:101FCC000C4997F907301201D2B20B4483F8002365
:101FDC000AE03B68DAB20849FB7903F00F03043BD3
:101FEC001201D2B20B441A7600BF0C37BD4680BC2E
:101FFC00704700BF00E100E000ED00E080B489B064
:10200C0000AFF860B9607A60FB6803F00703FB610E
:10201C00FB69C3F10703042B28BF0423BB61FB69D5
:10202C000433062B02D9FB69033B00E000237B61E0
:10203C004FF0FF32BB6902FA03F3DA43BB681A4074
:10204C007B699A404FF0FF317B6901FA03F3D94366
:10205C007B680B40134318462437BD4680BC704741
:10206C0080B582B000AF78607B68013BB3F1807FB4
:10207C0001D301230FE00A4A7B68013B53600F2117
:10208C004FF0FF30FFF790FF054B00229A60044B96
:10209C0007221A60002318460837BD4680BD00BFD2
:1020AC0010E000E080B582B000AF78607868FFF790
:1020BC002DFF00BF0837BD4680BD80B586B000AF90
:1020CC000346B9607A60FB7300237B61FFF742FF24
:1020DC0078617A68B9687869FFF790FF024697F9DA
:1020EC000F3011461846FFF75FFF00BF1837BD468B
:1020FC0080BD80B582B000AF0346FB7197F9073005
:10210C001846FFF735FF00BF0837BD4680BD80B5C8
:10211C0082B000AF78607868FFF7A2FF03461846DC
:10212C000837BD4680BD80B485B000AF7860002311
:10213C00FB737B6893F82130022B08D07B68042258
:10214C009A637B68002283F82020012320E07B68BF
:10215C001B681A687B681B6822F00E021A607B6889
:10216C001B681A687B681B6822F001021A607B6886
:10217C001A6C7B68DB6B012101FA02F25A607B68F6
:10218C00012283F821207B68002283F82020FB7B2E
:10219C0018461437BD4680BC7047000080B584B02B
:1021AC0000AF78600023FB737B6893F82130022B1F
:1021BC0005D07B6804229A630123FB7351E07B6892
:1021CC001B681A687B681B6822F00E021A607B6819
:1021DC001B681A687B681B6822F001021A607B6816
:1021EC001B68224A934229D07B681B68204A934281
:1021FC0022D07B681B681F4A93421AD07B681B68ED
:10220C001D4A934212D07B681B681C4A93420AD029
:10221C007B681B681A4A934202D14FF480130EE07C
:10222C004FF080730BE04FF4803308E04FF4805391
:10223C0005E04FF4807302E0102300E00123114A03
:10224C0053607B68012283F821207B68002283F88D
:10225C0020207B685B6B002B03D07B685B6B786802
:10226C009847FB7B18461037BD4680BD08000240DE
:10227C001C00024030000240440002405800024062
:10228C006C00024000000240F0B587B000AFF8606F
:10229C00B960C7E900230123FB750023BB7500233C
:1022AC007B752F4B1B7E012B01D1022354E02C4B51
:1022BC0001221A764CF2503000F0D4F80346FB752C
:1022CC00FB7D002B44D1FB68012B02D101237B75D4
:1022DC0007E0FB68022B02D102237B7501E004238B
:1022EC007B750023BB752DE0BB7D5A00BB6802EBF0
:1022FC00030CBB7D1901D7E90023C1F12006A1F124
:10230C00200022FA01F403FA06F6344323FA00F013
:10231C00044323FA01F5A3B21946604600F086F88F
:10232C004CF2503000F09EF80346FB750D4B1B69C8
:10233C000C4A23F001031361FB7D002B07D1BB7DFD
:10234C000133BB75BA7D7B7D9A42CDD300E000BFD3
:10235C00034B00221A76FB7D18461C37BD46F0BD98
:10236C00F80300200020024080B483B000AF0023AB
:10237C00FB710D4B1B6903F08003002B0DD00A4B36
:10238C000A4A5A60084B0A4A5A60074B1B6903F009
:10239C008003002B01D00123FB71FB7918460C370D
:1023AC00BD4680BC704700BF00200240230167453A
:1023BC00AB89EFCD80B400AF054B1B69044A43F0E9
:1023CC008003136100231846BD4680BC704700BFD4
:1023DC000020024080B400AF094B1B6903F400736A
:1023EC00002B07D1064B074A9A60054B064A9A60A8
:1023FC00002300E001231846BD4680BC704700BF97
:10240C000020024023016745AB89EFCD80B400AFBB
:10241C00054B1B69044A23F400731361002318460F
:10242C00BD4680BC704700BF0020024080B483B022
:10243C0000AF78600B467B80084B0022DA61084BBA
:10244C001B69074A43F0010313617B687A881A8081
:10245C0000BF0C37BD4680BC704700BFF80300209E
:10246C000020024080B584B000AF7860FFF720FDFB
:10247C00F86010E07B68B3F1FF3F0CD07B68002B59
:10248C0007D0FFF715FD0246FB68D31A7A689A420B
:10249C0001D2032325E0154BDB6803F00103002B6D
:1024AC00E8D1124BDB6803F02003002B02D00F4B5A
:1024BC002022DA600D4BDB6803F01003002B0BD1EC
:1024CC000A4BDB6903F00103002B05D1074BDB68DA
:1024DC0003F00403002B03D000F00AF8012300E002
:1024EC00002318461037BD4680BD00BF00200240B7
:1024FC0080B483B000AF00237B60234BDB6803F018
:10250C001003002B09D0214BDB6943F002031F4A57
:10251C00D3617B6843F010037B601B4BDB6803F0DB
:10252C000403002B09D0194BDB6943F00103174A54
:10253C00D3617B6843F004037B60134BDB6903F0CE
:10254C000103002B0BD0114BDB6943F004030F4A42
:10255C00D3610D4BDB690C4A23F00103D3617B681B
:10256C0040F20112934206D1074BDB69064A23F075
:10257C000103D36102E0044A7B68D36000BF0C37CF
:10258C00BD4680BC704700BF00200240F80300200D
:10259C0080B584B000AF786039600123FB730023F1
:1025AC00BB602F4B1B7E012B01D1022353E02C4B24
:1025BC0001221A767B681B68022B16D14CF2503024
:1025CC00FFF750FF0346002B41D1012000F04CF8DF
:1025DC004CF25030FFF746FF0346FB73214B1B694F
:1025EC00204A23F00403136131E04CF25030FFF722
:1025FC0039FF0346002B2AD13B684FF0FF321A609B
:10260C007B689B68BB6019E0B86800F049F84CF235
:10261C005030FFF727FF0346FB73124B1B69114A1F
:10262C0023F002031361FB7B002B03D03B68BA68D9
:10263C001A600CE0BB6803F58063BB607B68DB68E9
:10264C009A027B689B681344BA689A42DCD3044BA9
:10265C0000221A76FB7B18461037BD4680BD00BFA2
:10266C00F80300200020024080B483B000AF7860F3
:10267C00094B0022DA61094B1B69084A43F0040339
:10268C001361064B1B69054A43F04003136100BFFD
:10269C000C37BD4680BC7047F80300200020024078
:1026AC0080B483B000AF78600B4B0022DA610B4B27
:1026BC001B690A4A43F002031361084A7B685361A1
:1026CC00064B1B69054A43F04003136100BF0C37EE
:1026DC00BD4680BC704700BFF803002000200240BC
:1026EC0080B48BB000AF7860396000237B6200232C
:1026FC003B6269E101227B6A02FA03F3FB613B68EE
:10270C001B68FA691340BB61BA69FB699A4240F0D5
:10271C0058813B685B689A4A93425ED0984A9342D0
:10272C0075D8984A934258D0964A93426FD8964A95
:10273C00934252D0944A934269D8944A93424CD0D3
:10274C00924A934263D8924A934246D0904A93421B
:10275C005DD8122B2AD8122B59D801A252F823F08B
:10276C00E7270008C1270008D32700081528000810
:10277C001B2800081B2800081B2800081B28000821
:10278C001B2800081B2800081B2800081B28000811
:10279C001B2800081B2800081B2800081B28000801
:1027AC001B280008C9270008DD270008794A934236
:1027BC0013D02CE03B68DB683B6229E03B68DB68AC
:1027CC0004333B6224E03B68DB6808333B621FE068
:1027DC003B68DB680C333B621AE03B689B68002B60
:1027EC0002D104233B6213E03B689B68012B05D1AB
:1027FC0008233B627B68FA691A6109E008233B6293
:10280C007B68FA695A6103E000233B6200E000BF79
:10281C00BB69FF2B01D87B6801E07B6804337B61CB
:10282C00BB69FF2B02D87B6A9B0002E07B6A083BEA
:10283C009B003B617B691A680F213B6901FA03F32A
:10284C00DB431A40396A3B6901FA03F31A437B698B
:10285C001A603B685B6803F08053002B00F0B1807A
:10286C004D4B9B694C4A43F0010393614A4B9B6966
:10287C0003F00103BB60BB68484A7B6A9B080233C8
:10288C0052F82330FB607B6A03F003039B000F229A
:10289C0002FA03F3DB43FA681340FB607B68404A9F
:1028AC00934213D07B683F4A93420DD07B683E4ADB
:1028BC00934207D07B683D4A934201D1032306E043
:1028CC00042304E0022302E0012300E000237A6ADF
:1028DC0002F0030292009340FA681343FB602F4905
:1028EC007B6A9B080233FA6841F823203B685B68DB
:1028FC0003F48033002B06D02D4B1A682C49BB698E
:10290C0013430B6006E02A4B1A68BB69DB4328496A
:10291C0013400B603B685B6803F40033002B06D05C
:10292C00234B5A682249BB6913434B6006E0204B8A
:10293C005A68BB69DB431E4913404B603B685B68BC
:10294C0003F48013002B06D0194B9A681849BB6905
:10295C0013438B6006E0164B9A68BB69DB43144942
:10296C0013408B603B685B6803F40013002B21D091
:10297C000F4BDA680E49BB691343CB6021E000BFF3
:10298C000000321000003110000022100000211055
:10299C000000121000001110001002400000014055
:1029AC0000080140000C01400010014000140140DF
:1029BC00000401400B4BDA68BB69DB430949134047
:1029CC00CB607B6A01337B623B681A687B6A22FAB4
:1029DC0003F3002B7FF48EAE00BF00BF2C37BD4637
:1029EC0080BC70470004014080B483B000AF7860B5
:1029FC000B467B8013467B707B78002B03D07A8848
:102A0C007B681A6103E07B881A047B681A6100BF3B
:102A1C000C37BD4680BC704780B485B000AF786081
:102A2C000B467B807B68DB68FB607A88FB68134015
:102A3C001A04FB68D9437B880B401A437B681A61E4
:102A4C0000BF1437BD4680BC7047000080B582B013
:102A5C0000AF0346FB80084B5A69FB881340002BE0
:102A6C0006D0054AFB885361FB881846FFF738F8F7
:102A7C0000BF0837BD4680BD00040140F0B58BB0E7
:102A8C0006AF78607B68002B01D10123FDE07B68E9
:102A9C0093F8A932DBB2002B06D17B68002283F8B5
:102AAC00A822786807F070FF7B68032283F8A922BC
:102ABC007B681B68184603F03FFC7B681B683B6017
:102ACC007E686D4606F110040FCC0FC523682B6091
:102ADC00331D0ECB386803F009FC0346002B05D0E0
:102AEC007B68022283F8A9220123CEE07B681B6855
:102AFC000021184603F03AFC0023FB734CE0FB7BEF
:102B0C0079685A1C13469B001344DB000B440133B9
:102B1C0001221A70FB7B79685A1C13469B001344E4
:102B2C00DB000B44FA7B1A70FA7BFB7B98B279685A
:102B3C0013469B001344DB000B44363302461A80C9
:102B4C00FB7B79685A1C13469B001344DB000B4437
:102B5C00033300221A70FA7B796813469B001344E6
:102B6C00DB000B44383300221A60FA7B7968134679
:102B7C009B001344DB000B443C3300221A60FA7BAD
:102B8C00796813469B001344DB000B44403300224E
:102B9C001A60FB7B0133FB73FA7B7B685B689A42A0
:102BAC00ADD30023FB7344E0FA7B796813469B009A
:102BBC001344DB000B4403F2691300221A70FA7BF6
:102BCC00796813469B001344DB000B4403F5B47384
:102BDC00FA7B1A70FA7B796813469B001344DB006E
:102BEC000B4403F26B1300221A70FA7B79681346BC
:102BFC009B001344DB000B4403F5BC7300221A60EA
:102C0C00FA7B796813469B001344DB000B4403F5F5
:102C1C00BE7300221A60FA7B796813469B0013443A
:102C2C00DB000B4403F5C07300221A60FB7B0133FD
:102C3C00FB73FA7B7B685B689A42B5D37B681B6835
:102C4C003B607E686D4606F110040FCC0FC52368FF
:102C5C002B60331D0ECB386803F094FB0346002B1E
:102C6C0005D07B68022283F8A92201230DE07B6842
:102C7C00002283F824207B68012283F8A9227B6838
:102C8C001B68184606F046F8002318461437BD4654
:102C9C00F0BD80B582B000AF78607B6893F8A83245
:102CAC00012B01D1022316E07B68012283F8A822B4
:102CBC007B681B68184603F029FB0121786808F033
:102CCC00D6F87B681B68184606F01AF87B68002259
:102CDC0083F8A822002318460837BD4680BD80B56E
:102CEC0088B000AF78607B681B68184606F01CF84B
:102CFC00034603F40043B3F5004F02D1786800F0AB
:102D0C005FFB7B681B68184606F00EF8034603F45D
:102D1C008063B3F5806F12D17B681B68B3F84430C5
:102D2C009AB27B681B6822F4806292B2A3F84420AA
:102D3C00786807F0A4FE0021786800F023F97B681E
:102D4C001B68184605F0F0FF034603F48043B3F507
:102D5C00804F0BD17B681B68B3F844309AB27B6808
:102D6C001B6822F4804292B2A3F844207B681B6853
:102D7C00184605F0D9FF034603F40053B3F5005F82
:102D8C000BD17B681B68B3F844309AB27B681B6824
:102D9C0022F4005292B2A3F844207B681B681846B8
:102DAC0005F0C2FF034603F48053B3F5805F26D1D0
:102DBC007B681B68B3F840309AB27B681B6822F0C2
:102DCC00040292B2A3F840207B681B68B3F8403031
:102DDC009AB27B681B6822F0080292B2A3F84020DA
:102DEC00786807F085FE7B681B68B3F844309AB2AC
:102DFC007B681B6822F4805292B2A3F844207B6853
:102E0C001B68184605F090FF034603F40063B3F506
:102E1C00006F40F082800023FB7710E07B681B681A
:102E2C001A46FB7F9B001A44FB7F128892B25B0010
:102E3C0020333B4423F8142CFB7F0133FB77FB7FBF
:102E4C00072BEBD97B681B68B3F840309AB27B68D0
:102E5C001B6842F0010292B2A3F840207B681B6809
:102E6C00B3F840309AB27B681B6822F0010292B230
:102E7C00A3F8402000BF7B681B68B3F844309BB2BA
:102E8C0003F48063002BF6D07B681B68B3F84430E6
:102E9C009AB27B681B6822F4806292B2A3F8442039
:102EAC000023FB770FE0FB7F7A6812681146FA7FEC
:102EBC0092000A445B0020333B4433F8143C1380EB
:102ECC00FB7F0133FB77FB7F072BECD97B681B68FF
:102EDC00B3F840309AB27B681B6842F0080292B299
:102EEC00A3F840207B681B68B3F844309AB27B6827
:102EFC001B6822F4006292B2A3F844207B681B6822
:102F0C00B3F840309AB27B681B6842F0040292B26C
:102F1C00A3F84020786807F0D1FD7B681B68184641
:102F2C0005F002FF034603F40073B3F5007F0ED1E6
:102F3C007B681B68B3F844309AB27B681B6822F438
:102F4C00007292B2A3F84420786807F08AFD7B687F
:102F5C001B68184605F0E8FE034603F48073B3F5CE
:102F6C00807F0BD17B681B68B3F844309AB27B68C6
:102F7C001B6822F4807292B2A3F8442000BF203761
:102F8C00BD4680BD80B582B000AF78600B46FB704B
:102F9C007B6893F8A832012B01D1022313E07B68E4
:102FAC00012283F8A8227B68FA7883F824207B68B6
:102FBC001B68FA781146184605F08FFE7B680022D4
:102FCC0083F8A822002318460837BD4680BD80B57B
:102FDC0084B000AF7860084611461A460346FB7071
:102FEC000B463B801346BB700023FB7297F90330F2
:102FFC00002B0EDAFB7803F007035A1C13469B00D8
:10300C001344DB007A681344FB60FB6801225A709E
:10301C000EE0FB7803F0070213469B001344DB0021
:10302C0003F5B4737A681344FB60FB6800225A7092
:10303C00FB7803F00703DAB2FB681A703A88FB6876
:10304C001A61FB68BA78DA70FB685B78002B04D0E5
:10305C00FB681B789AB2FB68DA81BB78022B02D131
:10306C00FB6800221A717B6893F8A832012B01D1FE
:10307C0002230EE07B68012283F8A8227B681B6880
:10308C00F968184603F09EF97B68002283F8A822A1
:10309C00FB7A18461037BD4680BD80B584B000AFB2
:1030AC0078600B46FB7097F90330002B0EDAFB7837
:1030BC0003F007035A1C13469B001344DB007A6889
:1030CC001344FB60FB6801225A700EE0FB7803F09E
:1030DC00070213469B001344DB0003F5B4737A68B4
:1030EC001344FB60FB6800225A70FB7803F0070363
:1030FC00DAB2FB681A707B6893F8A832012B01D105
:10310C0002230EE07B68012283F8A8227B681B68EF
:10311C00F968184603F0C0FC7B68002283F8A822EB
:10312C00002318461037BD4680BD80B586B000AF71
:10313C00F8607A603B600B46FB72FB7A03F0070287
:10314C0013469B001344DB0003F5B473FA68134475
:10315C007B617B697A685A617B693A689A617B69A1
:10316C000022DA617B6900225A70FB7A03F00703B4
:10317C00DAB27B691A70FB7A03F00703002B06D1D5
:10318C00FB681B687969184603F072FE05E0FB6862
:10319C001B687969184603F06BFE00231846183734
:1031AC00BD4680BD80B483B000AF78600B46FB7029
:1031BC00FB7803F00702796813469B001344DB008D
:1031CC000B4403F5C2731B6818460C37BD4680BC14
:1031DC00704780B586B000AFF8607A603B600B46F4
:1031EC00FB72FB7A03F007035A1C13469B00134433
:1031FC00DB00FA6813447B617B697A685A617B69EE
:10320C003A689A617B69012283F824207B693A68C9
:10321C001A627B690022DA617B6901225A70FB7A9F
:10322C0003F00703DAB27B691A70FB7A03F0070329
:10323C00002B06D1FB681B687969184603F018FE51
:10324C0005E0FB681B687969184603F011FE002342
:10325C0018461837BD4680BD80B584B000AF786085
:10326C000B46FB70FB7803F007027B685B689A42A5
:10327C0001D901234CE097F90330002B0EDAFB78CF
:10328C0003F007035A1C13469B001344DB007A68B7
:10329C001344FB60FB6801225A700CE0FA78134669
:1032AC009B001344DB0003F5B4737A681344FB6092
:1032BC00FB6800225A70FB6801229A70FB7803F0BD
:1032CC000703DAB2FB681A707B6893F8A832012BFB
:1032DC0001D102231CE07B68012283F8A8227B68C1
:1032EC001B68F968184605F0FBFBFB7803F0070335
:1032FC00002B08D17B681A687B6803F52C73194680
:10330C00104605F020FD7B68002283F8A8220023DC
:10331C0018461037BD4680BD80B584B000AF7860CC
:10332C000B46FB70FB7803F00F027B685B689A42DC
:10333C0001D9012340E097F90330002B0EDAFB781A
:10334C0003F007035A1C13469B001344DB007A68F6
:10335C001344FB60FB6801225A700EE0FB7803F00B
:10336C00070213469B001344DB0003F5B4737A6821
:10337C001344FB60FB6800225A70FB6800229A70B1
:10338C00FB7803F00703DAB2FB681A707B6893F8DA
:10339C00A832012B01D102230EE07B68012283F8B5
:1033AC00A8227B681B68F968184605F0E9FB7B6866
:1033BC00002283F8A822002318461037BD4680BD92
:1033CC0080B58EB000AF7860ECE27B681B68B3F818
:1033DC004430FB85FB8DDBB203F00F0387F82D30F7
:1033EC0097F82D30002B40F06181FB8D03F010031A
:1033FC00002B52D17B681B681B889BB223F4E143E2
:10340C0023F07003FB817B681A68FB896FEA4343E6
:10341C006FEA53439BB213807B6828337B627B68D3
:10342C001B68B3F850309BB21A467B6A1B78DB00E2
:10343C00134402335B007A681268134403F580630B
:10344C001B88C3F309027B6ADA617B6A5A697B6A5F
:10345C00DB691A447B6A5A610021786807F0E7FA45
:10346C007B6893F82430DBB2002B00F09B827B6AE4
:10347C009B69002B40F096827B6893F82430DBB27A
:10348C0063F07F03DAB27B681B6892B2A3F84C201E
:10349C007B68002283F8242084E27B6803F5B473F4
:1034AC007B627B681B681B887B857B8D03F40063C8
:1034BC00002B34D07B681B68B3F850309BB21A4693
:1034CC007B6A1B78DB00134406335B007A68126856
:1034DC00134403F580631B88C3F309027B6ADA612A
:1034EC007B6818687B6803F52C717B6ADA887B6AC9
:1034FC00DB699BB205F077FC7B681B681B889AB272
:10350C0040F68F7313403B827B681B683A8A42F00B
:10351C00800292B21A80786807F05CFA42E2B7F93E
:10352C002A30002B80F23E827B681B681B889AB283
:10353C0040F68F731340BB837B681B68BA8B42F0D9
:10354C00800292B21A807B681B68B3F850309BB231
:10355C001A467B6A1B78DB00134406335B007A68DF
:10356C001268134403F580631B88C3F309027B6A5A
:10357C00DA617B6ADB69002B19D07B6A5B69002BF3
:10358C0015D07B6818687B6A59697B6ADA887B6A14
:10359C00DB699BB205F027FC7B6A5A697B6ADB69A5
:1035AC001A447B6A5A610021786807F025FA7B6817
:1035BC001B681B889BB203F40063002B40F0F28164
:1035CC007B681B68BB617B681B68B3F850309BB28F
:1035DC001A46BB691344BB61BB6903F20C437B61A4
:1035EC007B6A1B69002B12D17B691B889BB223F46D
:1035FC00F8439AB27B691A807B691B889BB26FEA8D
:10360C0043436FEA53439AB27B691A802FE07B6A7B
:10361C001B693E2B13D87B6A1B695B083B637B6A77
:10362C001B6903F00103002B02D03B6B01333B639E
:10363C003B6B9BB29B029AB27B691A8017E07B6A48
:10364C001B695B093B637B6A1B6903F01F03002B3F
:10365C0002D13B6B013B3B633B6B9BB29B029BB22E
:10366C006FEA43436FEA53439AB27B691A807B68D3
:10367C001B681B889BB223F4804323F070037B826E
:10368C007B8A83F480537B827B8A83F400537B8216
:10369C007B681A687B8A43F07F4343F47F0343F4CF
:1036AC00004343F080039BB213807BE17B681B6873
:1036BC001A4697F82D309B0013441B887B85B7F96D
:1036CC002A30002B80F2EA807B681B681A4697F838
:1036DC002D309B0013441B889AB240F68F73134015
:1036EC003B857B681B681A4697F82D309B0013446A
:1036FC003A8D42F0800292B21A8097F82D20134630
:10370C009B001344DB0003F5B4737A6813447B62AB
:10371C007B6A1B7B002B22D17B681B68B3F8503073
:10372C009BB21A467B6A1B78DB00134406335B00A2
:10373C007A681268134403F580631B88C3F309038A
:10374C00FB86FB8E002B00F087807B6818687B6AF9
:10375C0059697B6ADA88FB8E05F045FB7CE07B6A55
:10376C00DB78022B08D17B8D1A46796A786800F0D9
:10377C0027F90346FB866FE07B681B681A467B6A59
:10378C001B789B0013441B889BB223F4E04323F06B
:10379C0070037B847B681B681A467B6A1B789B00D2
:1037AC001A447B8C43F07F4343F47F0343F4004380
:1037BC0043F0C0039BB213807B681B681A467B6A7C
:1037CC001B789B0013441B889BB203F48043002B93
:1037DC0021D07B681B68B3F850309BB21A467B6AC9
:1037EC001B78DB00134402335B007A6812681344C5
:1037FC0003F580631B88C3F30903FB86FB8E002B48
:10380C002AD07B6818687B6A59697B6A1A89FB8E97
:10381C0005F0E9FA20E07B681B68B3F850309BB2E6
:10382C001A467B6A1B78DB00134406335B007A680C
:10383C001268134403F580631B88C3F30903FB86EA
:10384C00FB8E002B08D07B6818687B6A59697B6AF1
:10385C005A89FB8E05F0C7FA7B6ADA69FB8E1A442B
:10386C007B6ADA617B6A5A69FB8E1A447B6A5A61FD
:10387C007B6A9B69002B04D0FA8E7B6A1B699A4287
:10388C0006D27B6A1B781946786807F0B5F805E014
:10389C007B681B68796A184603F0EAFA7B8D03F0A3
:1038AC008003002B7ED097F82D305A1C13469B00BA
:1038BC001344DB007A6813447B627B681B681A46EE
:1038CC0097F82D309B0013441B889BB223F4E143E3
:1038DC0023F070033B847B681B681A4697F82D30E5
:1038EC009B001A443B8C6FEA43436FEA53439BB2F1
:1038FC0013807B6ADB78032B0CD07B6ADB78002B84
:10390C0008D07B6ADB78022B46D17B8D03F4807365
:10391C00002B41D17B681B68B3F850309BB21A4620
:10392C007B6A1B78DB00134402335B007A681268F5
:10393C00134403F580631B88C3F30903FB837B6A81
:10394C009A69FB8B9A4206D97B6A9A69FB8BD21ACD
:10395C007B6A9A6102E07B6A00229A617B6A9B69AE
:10396C00002B06D17B6A1B781946786807F05FF844
:10397C0018E07B6A5A69FB8B1A447B6A5A617B6A32
:10398C00DA69FB8B1A447B6ADA617B681B68796A9B
:10399C00184603F06DFA05E07B8D1A46796A786853
:1039AC0000F01BF97B681B68B3F844309BB21BB268
:1039BC00002BFFF60AAD002318463837BD4680BDF4
:1039CC0080B588B000AFF860B9601346FB80FB8807
:1039DC0003F48043002B7ED0FB681B68B3F8503097
:1039EC009BB21A46BB681B78DB00134402335B00A6
:1039FC00FA681268134403F580631B88C3F3090348
:103A0C007B83BB689A697B8B9A4206D3BB689A69A5
:103A1C007B8BD21ABB689A6102E0BB6800229A6168
:103A2C00BB689B69002B23D1FB681B681A46BB68DB
:103A3C001B789B0013441B889BB223F4804323F018
:103A4C0070033B833B8B83F400533B83FB681B6805
:103A5C001A46BB681B789B001A443B8B43F07F4390
:103A6C0043F47F0343F4004343F080039BB2138081
:103A7C00FB8803F04003002B1FD0FB681B681A4621
:103A8C00BB681B789B0013441B889BB223F4E04358
:103A9C0023F07003FB82FB681B681A46BB681B781B
:103AAC009B001A44FB8A43F07F4343F47F0343F4A7
:103ABC00004343F0C0039BB213807B8B002B00F0C0
:103ACC008780FB681868BB685969BB681A897B8B4F
:103ADC0005F089F97CE0FB681B68B3F850309BB2A9
:103AEC001A46BB681B78DB00134406335B00FA688C
:103AFC001268134403F580631B88C3F309037B83AB
:103B0C00BB689A697B8B9A4206D3BB689A697B8B9C
:103B1C00D21ABB689A6102E0BB6800229A61BB684A
:103B2C009B69002B23D1FB681B681A46BB681B786A
:103B3C009B0013441B889BB223F4804323F0700337
:103B4C00FB83FB8B83F40053FB83FB681B681A46D7
:103B5C00BB681B789B001A44FB8B43F07F4343F4F8
:103B6C007F0343F4004343F080039BB21380FB8834
:103B7C0003F04003002B1FD1FB681B681A46BB687F
:103B8C001B789B0013441B889BB223F4E04323F067
:103B9C007003BB83FB681B681A46BB681B789B00D1
:103BAC001A44BB8B43F07F4343F47F0343F400433D
:103BBC0043F0C0039BB213807B8B002B08D0FB68B7
:103BCC001868BB685969BB685A897B8B05F00BF97F
:103BDC007B8B18462037BD4680BD80B5A2B000AFA8
:103BEC00F860B9601346FB80FB8803F04003002BA0
:103BFC0000F0C781FB681B68B3F850309BB21A46C3
:103C0C00BB681B78DB00134402335B00FA68126854
:103C1C00134403F580631B88C3F30903A7F84E30E4
:103C2C00BB689A69B7F84E309A4207D9BB689A6953
:103C3C00B7F84E30D21ABB689A6102E0BB6800221A
:103C4C009A61BB689B69002B40F0B980BB685B78BC
:103C5C00002B26D1FB681B68BB62FB681B68B3F8A2
:103C6C0050309BB21A46BB6A1344BB62BB681B78CC
:103C7C001A01BB6A134403F204437B627B6A1B8800
:103C8C009BB223F4F8439AB27B6A1A807B6A1B8836
:103C9C009BB26FEA43436FEA53439AB27B6A1A8032
:103CAC001AE0BB685B78012B16D1FB681B683B6381
:103CBC00FB681B68B3F850309BB21A463B6B13443D
:103CCC003B63BB681B781A013B6B134403F2044340
:103CDC00FB62FB6A00221A80FB681B683B62BB68B4
:103CEC005B78002B26D1FB681B68BB61FB681B68EB
:103CFC00B3F850309BB21A46BB691344BB61BB6826
:103D0C001B781A01BB69134403F20C437B617B697A
:103D1C001B889BB223F4F8439AB27B691A807B69A7
:103D2C001B889BB26FEA43436FEA53439AB27B6999
:103D3C001A8017E0BB685B78012B13D1FB681B68FA
:103D4C00B3F850309BB21A463B6A13443B62BB68D3
:103D5C001B781A013B6A134403F20C43FB61FB69A9
:103D6C0000221A80BB681B781946F86806F05FFEC3
:103D7C00FB8803F48043002B00F0D482FB681B68A3
:103D8C001A46BB681B789B0013441B889BB223F418
:103D9C00E04323F070037B82FB681B681A46BB6808
:103DAC001B789B001A447B8A43F07F4343F47F03C8
:103DBC0043F4404343F080039BB21380B2E2FB8890
:103DCC0003F48043002B21D0FB681B681A46BB68A8
:103DDC001B789B0013441B889BB223F4E04323F015
:103DEC007003A7F84430FB681B681A46BB681B7845
:103DFC009B001A44B7F8443043F07F4343F47F03ED
:103E0C0043F4404343F080039BB21380BB6893F8A8
:103E1C002430012B40F08682BB685A69B7F84E30CB
:103E2C001A44BB685A61BB68DA69B7F84E301A4459
:103E3C00BB68DA61BB681A6ABB681B699A4209D312
:103E4C00BB681B693B65BB681A6A3B6DD21ABB68C1
:103E5C001A6215E0BB681B6A002B07D1B7F84E300D
:103E6C003B65BB68002283F8242009E0BB68002274
:103E7C0083F82420BB681B6A3B65BB6800221A626E
:103E8C00BB685B78002B55D1FB681B68BB63FB6878
:103E9C001B68B3F850309BB21A46BB6B1344BB6320
:103EAC00BB681B781A01BB6B134403F204437B639E
:103EBC003B6D002B12D17B6B1B889BB223F4F84318
:103ECC009AB27B6B1A807B6B1B889BB26FEA434365
:103EDC006FEA53439AB27B6B1A8047E03B6D3E2BE3
:103EEC0011D83B6D5B08BB643B6D03F00103002BE9
:103EFC0002D0BB6C0133BB64BB6C9BB29B029AB20D
:103F0C007B6B1A8032E03B6D5B09BB643B6D03F04D
:103F1C001F03002B02D1BB6C013BBB64BB6C9BB27F
:103F2C009B029BB26FEA43436FEA53439AB27B6B9B
:103F3C001A801BE0BB685B78012B17D1FB681B68F0
:103F4C003B64FB681B68B3F850309BB21A463B6C61
:103F5C0013443B64BB681B781A013B6C134403F29B
:103F6C000443FB633B6D9AB2FB6B1A80FB681868C9
:103F7C00BB685969BB681A893B6D9BB204F0EEFEB5
:103F8C00D0E1FB681B68B3F850309BB21A46BB6893
:103F9C001B78DB00134406335B00FA681268134489
:103FAC0003F580631B88C3F30903A7F84E30BB6885
:103FBC009A69B7F84E309A4207D3BB689A69B7F83A
:103FCC004E30D21ABB689A6102E0BB6800229A613B
:103FDC00BB689B69002B40F0C480BB685B78002BEE
:103FEC0026D1FB681B68FB66FB681B68B3F8503076
:103FFC009BB21A46FB6E1344FB66BB681B781A0116
:10400C00FB6E134403F20443BB66BB6E1B889BB26E
:10401C0023F4F8439AB2BB6E1A80BB6E1B889BB21A
:10402C006FEA43436FEA53439AB2BB6E1A801AE0AD
:10403C00BB685B78012B16D1FB681B687B67FB6840
:10404C001B68B3F850309BB21A467B6F13447B67E6
:10405C00BB681B781A017B6F134403F204433B6764
:10406C003B6F00221A80FB681B68BB67BB685B78E0
:10407C00002B2FD1FB681B68C7F88030FB681B68CE
:10408C00B3F850309BB21A46D7F880301344C7F8B7
:10409C008030BB681B781A01D7F88030134403F2C8
:1040AC000C43C7F88430D7F884301B889BB223F4B8
:1040BC00F8439AB2D7F884301A80D7F884301B882A
:1040CC009BB26FEA43436FEA53439AB2D7F88430FA
:1040DC001A8017E0BB685B78012B13D1FB681B6857
:1040EC00B3F850309BB21A46BB6F1344BB67BB6826
:1040FC001B781A01BB6F134403F20C43FB67FB6F75
:10410C0000221A80BB681B781946F86806F08FFCF1
:10411C00FB8803F48043002B40F00481FB681B6890
:10412C001A46BB681B789B0013441B889BB223F474
:10413C00E04323F07003A7F84630FB681B681A466F
:10414C00BB681B789B001A44B7F8463043F07F439A
:10415C0043F47F0343F4404343F080039BB213804A
:10416C00E0E0FB8803F48043002B21D1FB681B6843
:10417C001A46BB681B789B0013441B889BB223F424
:10418C00E04323F07003A7F84C30FB681B681A4619
:10419C00BB681B789B001A44B7F84C3043F07F4344
:1041AC0043F47F0343F4404343F080039BB21380FA
:1041BC00BB6893F82430012B40F0B480BB685A697B
:1041CC00B7F84E301A44BB685A61BB68DA69B7F865
:1041DC004E301A44BB68DA61BB681A6ABB681B694B
:1041EC009A4209D3BB681B693B65BB681A6A3B6D75
:1041FC00D21ABB681A6215E0BB681B6A002B07D188
:10420C00B7F84E303B65BB68002283F8242009E0E8
:10421C00BB681B6A3B65BB6800221A62BB68002244
:10422C0083F82420FB681B687B66BB685B78002BDB
:10423C0055D1FB681B68FB65FB681B68B3F85030F5
:10424C009BB21A46FB6D1344FB65BB681B781A01C5
:10425C00FB6D134403F20C43BB653B6D002B12D179
:10426C00BB6D1B889BB223F4F8439AB2BB6D1A80CA
:10427C00BB6D1B889BB26FEA43436FEA53439AB200
:10428C00BB6D1A8044E03B6D3E2B11D83B6D5B0837
:10429C007B653B6D03F00103002B02D07B6D01337A
:1042AC007B657B6D9BB29B029AB2BB6D1A802FE033
:1042BC003B6D5B097B653B6D03F01F03002B02D14B
:1042CC007B6D013B7B657B6D9BB29B029BB26FEA66
:1042DC0043436FEA53439AB2BB6D1A8018E0BB6834
:1042EC005B78012B14D1FB681B68B3F850309BB280
:1042FC001A467B6E13447B66BB681B781A017B6E77
:10430C00134403F20C433B663B6D9AB23B6E1A802E
:10431C00FB681868BB685969BB685A893B6D9BB2CE
:10432C0004F01CFDFB681B681A46BB681B789B00DD
:10433C0013441B889BB223F4E04323F040033B82DD
:10434C003B8A83F010033B823B8A83F020033B8241
:10435C00FB681B681A46BB681B789B001A443B8A97
:10436C0043F07F4343F47F0343F4004343F0800363
:10437C009BB21380002318468837BD4680BD80B49D
:10438C0087B000AFF8607B600B467B8113463B81A6
:10439C007B8903F080039BB2002B0BD07B8903F04D
:1043AC0007035A1C13469B001344DB00FA681344A2
:1043BC007B6109E07A8913469B001344DB0003F50B
:1043CC00B473FA6813447B613B89002B07D17B697A
:1043DC0000221A737B689AB27B69DA800BE07B69E6
:1043EC0001221A737B689AB27B691A817B681B0C59
:1043FC009AB27B695A81002318461C37BD4680BC93
:10440C007047000080B586B000AF78607B68002BE9
:10441C0001D1012372E27B681B6803F00103002BBE
:10442C0000F08780924B5B6803F00C03042B0CD0DC
:10443C008F4B5B6803F00C03082B12D18C4B5B6821
:10444C0003F48033B3F5803F0BD1894B1B6803F425
:10445C000033002B6CD07B685B68002B68D1012388
:10446C004CE27B685B68B3F5803F06D1804B1B68E0
:10447C007F4A43F4803313602EE07B685B68002B2B
:10448C000CD17B4B1B687A4A23F480331360784B36
:10449C001B68774A23F4802313601DE07B685B68FC
:1044AC00B3F5A02F0CD1724B1B68714A43F48023D7
:1044BC0013606F4B1B686E4A43F4803313600BE040
:1044CC006B4B1B686A4A23F480331360684B1B6880
:1044DC00674A23F4802313607B685B68002B13D03E
:1044EC00FDF7E6FC386108E0FDF7E2FC02463B69AB
:1044FC00D31A642B01D9032300E25D4B1B6803F430
:10450C000033002BF0D014E0FDF7D2FC386108E04A
:10451C00FDF7CEFC02463B69D31A642B01D9032369
:10452C00ECE1534B1B6803F40033002BF0D100E09B
:10453C0000BF7B681B6803F00203002B63D04C4B5D
:10454C005B6803F00C03002B0BD0494B5B6803F04A
:10455C000C03082B1CD1464B5B6803F48033002BF7
:10456C0016D1434B1B6803F00203002B05D07B686C
:10457C001B69012B01D00123C0E13D4B1B6823F0CB
:10458C00F8027B685B69DB00394913430B603AE046
:10459C007B681B69002B20D0364B01221A60FDF77B
:1045AC0087FC386108E0FDF783FC02463B69D31AAF
:1045BC00022B01D90323A1E12D4B1B6803F002034D
:1045CC00002BF0D02A4B1B6823F0F8027B685B6948
:1045DC00DB00274913430B6015E0264B00221A60C1
:1045EC00FDF766FC386108E0FDF762FC02463B69AA
:1045FC00D31A022B01D9032380E11D4B1B6803F056
:10460C000203002BF0D17B681B6803F00803002B1E
:10461C003AD07B689B69002B19D0174B01221A608A
:10462C00FDF746FC386108E0FDF742FC02463B69A9
:10463C00D31A022B01D9032360E10D4B5B6A03F003
:10464C000203002BF0D0012000F0D8FA1CE00A4B3A
:10465C0000221A60FDF72CFC38610FE0FDF728FCF6
:10466C0002463B69D31A022B08D9032346E100BF4B
:10467C00001002400000424280044242924B5B6AAE
:10468C0003F00203002BE9D17B681B6803F00403E1
:10469C00002B00F0A6800023FB758B4BDB6903F02D
:1046AC008053002B0DD1884BDB69874A43F0805334
:1046BC00D361854BDB6903F08053BB60BB6801237E
:1046CC00FB75824B1B6803F48073002B18D17F4B56
:1046DC001B687E4A43F480731360FDF7E9FB386175
:1046EC0008E0FDF7E5FB02463B69D31A642B01D9C0
:1046FC00032303E1754B1B6803F48073002BF0D08C
:10470C007B68DB68012B06D16F4B1B6A6E4A43F04A
:10471C00010313622DE07B68DB68002B0CD16A4B24
:10472C001B6A694A23F001031362674B1B6A664AD2
:10473C0023F0040313621CE07B68DB68052B0CD1AF
:10474C00614B1B6A604A43F0040313625E4B1B6AA5
:10475C005D4A43F0010313620BE05B4B1B6A5A4A40
:10476C0023F001031362584B1B6A574A23F00403CE
:10477C0013627B68DB68002B15D0FDF799FB386161
:10478C000AE0FDF795FB02463B69D31A41F28832E9
:10479C00934201D90323B1E04B4B1B6A03F0020394
:1047AC00002BEED014E0FDF783FB38610AE0FDF737
:1047BC007FFB02463B69D31A41F28832934201D9FE
:1047CC0003239BE0404B1B6A03F00203002BEED14A
:1047DC00FB7D012B05D13C4BDB693B4A23F080531D
:1047EC00D3617B68DB69002B00F08780364B5B68FC
:1047FC0003F00C03082B61D07B68DB69022B46D1DC
:10480C00334B00221A60FDF753FB386108E0FDF7CB
:10481C004FFB02463B69D31A022B01D903236DE0EF
:10482C00294B1B6803F00073002BF0D17B681B6ACB
:10483C00B3F5803F08D1244B5B6823F400327B68CE
:10484C009B68214913434B601F4B5B6823F4741224
:10485C007B68196A7B685B6A0B431B4913434B608B
:10486C001B4B01221A60FDF723FB386108E0FDF7B2
:10487C001FFB02463B69D31A022B01D903233DE0EF
:10488C00114B1B6803F00073002BF0D035E0104B7C
:10489C0000221A60FDF70CFB386108E0FDF708FBFD
:1048AC0002463B69D31A022B01D9032326E0064B9F
:1048BC001B6803F00073002BF0D11EE07B68DB69F2
:1048CC00012B07D1012319E00010024000700040B9
:1048DC00600042420B4B5B68FB60FB6803F4803268
:1048EC007B681B6A9A4206D1FB6803F470127B68E2
:1048FC005B6A9A4201D0012300E000231846183766
:10490C00BD4680BD0010024080B584B000AF786019
:10491C0039607B68002B01D10123D0E06A4B1B6806
:10492C0003F007033A689A4210D9674B1B6823F0CF
:10493C00070265493B6813430B60634B1B6803F02C
:10494C0007033A689A4201D00123B8E07B681B68E0
:10495C0003F00203002B20D07B681B6803F00403D8
:10496C00002B05D0594B5B68584A43F4E063536005
:10497C007B681B6803F00803002B05D0534B5B6866
:10498C00524A43F460535360504B5B6823F0F0027F
:10499C007B689B684D4913434B607B681B6803F035
:1049AC000103002B40D07B685B68012B07D1474B80
:1049BC001B6803F40033002B15D101237FE07B68C7
:1049CC005B68022B07D1414B1B6803F00073002B73
:1049DC0009D1012373E03D4B1B6803F00203002B4C
:1049EC0001D101236BE0394B5B6823F003027B6838
:1049FC005B68364913434B60FDF75AFAF8600AE0DE
:104A0C00FDF756FA0246FB68D31A41F288329342FC
:104A1C0001D9032353E02D4B5B6803F00C027B6838
:104A2C005B689B009A42EBD1274B1B6803F0070392
:104A3C003A689A4210D2244B1B6823F00702224991
:104A4C003B6813430B60204B1B6803F007033A6869
:104A5C009A4201D0012332E07B681B6803F0040307
:104A6C00002B08D0194B5B6823F4E0627B68DB6891
:104A7C00164913434B607B681B6803F00803002B3B
:104A8C0009D0124B5B6823F460527B681B69DB0016
:104A9C000E4913434B6000F021F802460B4B5B6848
:104AAC001B0903F00F030A49CB5C22FA03F3094AF2
:104ABC001360094B1B681846FDF7B8F9002318461C
:104ACC001037BD4680BD00BF0020024000100240E0
:104ADC00CCAF0008040000200800002090B48AB07D
:104AEC0000AF294B3C1D0FCB84E80F0040F2012393
:104AFC003B800023FB610023BB6100237B6200230E
:104B0C007B6100233B62214B5B68FB61FB6903F01B
:104B1C000C03042B02D0082B03D02BE01C4B3B6264
:104B2C002BE0FB699B0C03F00F0328333B4413F879
:104B3C00243C7B61FB6903F48033002B12D0134BB4
:104B4C005B685B0C03F0010328333B4413F8283CEF
:104B5C00BB617B690E4A03FB02F2BB69B2FBF3F348
:104B6C007B6204E07B690B4A02FB03F37B627B6A8A
:104B7C003B6202E0064B3B6200BF3B6A184628379B
:104B8C00BD4690BC704700BF74AF000800100240D7
:104B9C0000127A0000093D0080B400AF024B1B6884
:104BAC001846BD4680BC70470400002080B500AF9D
:104BBC00FFF7F2FF0246054B5B681B0A03F0070385
:104BCC000349CB5C22FA03F3184680BD0010024067
:104BDC00DCAF000880B500AFFFF7DEFF0246054BE7
:104BEC005B68DB0A03F007030349CB5C22FA03F38F
:104BFC00184680BD00100240DCAF000880B485B0C0
:104C0C0000AF78600A4B1B680A4AA2FB03235B0ABD
:104C1C007A6802FB03F3FB6000BFFB685A1EFA6064
:104C2C00002BF9D100BF00BF1437BD4680BC7047C4
:104C3C0004000020D34D621080B586B000AF7860C0
:104C4C0000233B610023FB607B681B6803F00103BE
:104C5C00002B7DD00023FB754F4BDB6903F0805399
:104C6C00002B0DD14C4BDB694B4A43F08053D36185
:104C7C00494BDB6903F08053BB60BB680123FB75B8
:104C8C00464B1B6803F48073002B18D1434B1B68F5
:104C9C00424A43F480731360FDF70AF9386108E067
:104CAC00FDF706F902463B69D31A642B01D903239D
:104CBC006DE03A4B1B6803F48073002BF0D0364B3D
:104CCC001B6A03F44073FB60FB68002B2ED07B68DF
:104CDC005B6803F44073FA689A4227D02E4B1B6A28
:104CEC0023F44073FB602E4B01221A602C4B0022E4
:104CFC001A60294AFB681362FB6803F00103002B5E
:104D0C0014D0FDF7D5F838610AE0FDF7D1F802466A
:104D1C003B69D31A41F28832934201D9032336E01E
:104D2C001D4B1B6A03F00203002BEED01A4B1B6ABF
:104D3C0023F440727B685B68174913430B62FB7D5D
:104D4C00012B05D1144BDB69134A23F08053D3613B
:104D5C007B681B6803F00203002B08D00E4B5B68CA
:104D6C0023F440427B689B680B4913434B607B6880
:104D7C001B6803F01003002B08D0074B5B6823F46F
:104D8C0080027B68DB68044913434B6000231846A0
:104D9C001837BD4680BD00BF0010024000700040B7
:104DAC004004424280B582B000AF78607B68002B33
:104DBC0001D1012341E07B6893F83D30DBB2002B3D
:104DCC0006D17B68002283F83C207868FCF71CFF36
:104DDC007B68022283F83D207B681A687B68043369
:104DEC001946104600F09AFC7B68012283F8462095
:104DFC007B68012283F83E207B68012283F83F20E8
:104E0C007B68012283F840207B68012283F84120D3
:104E1C007B68012283F842207B68012283F84320BF
:104E2C007B68012283F844207B68012283F84520AB
:104E3C007B68012283F83D20002318460837BD46C5
:104E4C0080BD000080B485B000AF78607B6893F8BB
:104E5C003D30DBB2012B01D001233AE07B6802220A
:104E6C0083F83D207B681B68DA687B681B6842F01E
:104E7C000102DA607B681B68184A93420ED07B688B
:104E8C001B68B3F1804F09D07B681B68144A9342AE
:104E9C0004D07B681B68134A934211D17B681B6852
:104EAC009B6803F00703FB60FB68062B10D07B6844
:104EBC001B681A687B681B6842F001021A6007E0E5
:104ECC007B681B681A687B681B6842F001021A60D9
:104EDC00002318461437BD4680BC7047002C014097
:104EEC00000400400008004080B483B000AF78603C
:104EFC007B681B68DA687B681B6822F00102DA6049
:104F0C007B681B681A6A41F211131340002B0FD1F6
:104F1C007B681B681A6A40F244431340002B07D18C
:104F2C007B681B681A687B681B6822F001021A6098
:104F3C007B68012283F83D20002318460C37BD46C0
:104F4C0080BC704780B586B000AF786039607B68F4
:104F5C00002B01D1012393E07B6893F83D30DBB249
:104F6C00002B06D17B68002283F83C207868FCF784
:104F7C0007FE7B68022283F83D207B681B689B68D8
:104F8C007A68126823F4804323F0070393607B68EC
:104F9C001A687B6804331946104600F0BFFB7B6827
:104FAC001B689B687B617B681B689B693B617B68AA
:104FBC001B681B6AFB603B681B687A6913437B6147
:104FCC003B6923F4407323F003033B613B689A680D
:104FDC003B689B691B0213433A6913433B613B6972
:104FEC0023F4406323F00C033B613B6923F47043CF
:104FFC0023F0F0033B613B68DA683B68DB691B021A
:10500C0013433A6913433B613B681B691A013B68C4
:10501C001B6A1B0313433A6913433B61FB6823F080
:10502C002203FB603B685A683B685B691B011343B6
:10503C00FA681343FB607B681B687A699A607B682B
:10504C001B683A699A617B681B68FA681A627B680C
:10505C00012283F846207B68012283F83E207B687E
:10506C00012283F83F207B68012283F842207B6871
:10507C00012283F843207B68012283F83D20002322
:10508C0018461837BD4680BD80B584B000AF786037
:10509C0039607B6893F83E30FB737B6893F83F3044
:1050AC00BB737B6893F842307B737B6893F8433017
:1050BC003B733B68002B10D1FB7B012B02D17B7B1C
:1050CC00012B01D0012389E07B68022283F83E206A
:1050DC007B68022283F8422031E03B68042B10D11C
:1050EC00BB7B012B02D13B7B012B01D0012375E053
:1050FC007B68022283F83F207B68022283F84320DE
:10510C001DE0FB7B012B08D1BB7B012B05D17B7BED
:10511C00012B02D13B7B012B01D001235EE07B688C
:10512C00022283F83E207B68022283F83F207B68B2
:10513C00022283F842207B68022283F843203B68DA
:10514C00002B03D03B68042B10D01FE07B681B683E
:10515C0001220021184600F0D9FB7B681B68DA6835
:10516C007B681B6842F00202DA602EE07B681B68E9
:10517C0001220421184600F0C9FB7B681B68DA6821
:10518C007B681B6842F00402DA601EE07B681B68D7
:10519C0001220021184600F0B9FB7B681B68012234
:1051AC000421184600F0B2FB7B681B68DA687B6848
:1051BC001B6842F00202DA607B681B68DA687B6865
:1051CC001B6842F00402DA6000BF7B681B681A6837
:1051DC007B681B6842F001021A60002318461037E6
:1051EC00BD4680BD80B582B000AF786039603B6849
:1051FC00002B0FD17B681B6800220021184600F0A1
:10520C0085FB7B681B68DA687B681B6822F00202EE
:10521C00DA6030E03B68042B0FD17B681B680022FE
:10522C000421184600F072FB7B681B68DA687B6807
:10523C001B6822F00402DA601DE07B681B68002208
:10524C000021184600F062FB7B681B6800220421D9
:10525C00184600F05BFB7B681B68DA687B681B6890
:10526C0022F00202DA607B681B68DA687B681B68D4
:10527C0022F00402DA607B681B681A6A41F211138F
:10528C001340002B0FD17B681B681A6A40F2444311
:10529C001340002B07D17B681B681A687B681B685E
:1052AC0022F001021A603B68002B02D03B68042BF1
:1052BC0038D13B68002B04D17B68012283F83E2057
:1052CC0013E03B68042B04D17B68012283F83F2058
:1052DC000BE03B68082B04D17B68012283F840204B
:1052EC0003E07B68012283F841203B68002B04D14A
:1052FC007B68012283F8422024E03B68042B04D114
:10530C007B68012283F843201CE03B68082B04D106
:10531C007B68012283F8442014E07B68012283F827
:10532C0045200FE07B68012283F83E207B68012238
:10533C0083F83F207B68012283F842207B6801229E
:10534C0083F84320002318460837BD4680BD80B53E
:10535C0082B000AF78607B681B681B6903F00203A6
:10536C00022B22D17B681B68DB6803F00203022B43
:10537C001BD17B681B686FF002021A617B680122EB
:10538C001A777B681B689B6903F00303002B03D01F
:10539C007868FCF7FBFA05E0786800F0A4F9786807
:1053AC0000F0AAF97B6800221A777B681B681B69DE
:1053BC0003F00403042B22D17B681B68DB6803F029
:1053CC000403042B1BD17B681B686FF004021A6169
:1053DC007B6802221A777B681B689B6903F4407315
:1053EC00002B03D07868FCF7D1FA05E0786800F060
:1053FC007AF9786800F080F97B6800221A777B686C
:10540C001B681B6903F00803082B22D17B681B68FF
:10541C00DB6803F00803082B1BD17B681B686FF05B
:10542C0008021A617B6804221A777B681B68DB69A7
:10543C0003F00303002B03D07868FCF7A7FA05E010
:10544C00786800F050F9786800F056F97B68002213
:10545C001A777B681B681B6903F01003102B22D191
:10546C007B681B68DB6803F01003102B1BD17B6877
:10547C001B686FF010021A617B6808221A777B6830
:10548C001B68DB6903F44073002B03D07868FCF7CE
:10549C007DFA05E0786800F026F9786800F02CF9C0
:1054AC007B6800221A777B681B681B6903F0010379
:1054BC00012B0ED17B681B68DB6803F00103012B09
:1054CC0007D17B681B686FF001021A617868FCF7E2
:1054DC00AFFA7B681B681B6903F08003802B0ED12D
:1054EC007B681B68DB6803F08003802B07D17B682B
:1054FC001B686FF080021A61786800F092FA7B6882
:10550C001B681B6903F04003402B0ED17B681B68A2
:10551C00DB6803F04003402B07D17B681B686FF0FE
:10552C0040021A61786800F0F0F87B681B681B6910
:10553C0003F02003202B0ED17B681B68DB6803F083
:10554C002003202B07D17B681B686FF020021A61A7
:10555C00786800F05DFA00BF0837BD4680BD80B5A5
:10556C0084B000AF786039607B6893F83C30012BD5
:10557C0001D10223B3E07B68012283F83C207B68D5
:10558C00022283F83D207B681B689B68FB60FB68EC
:10559C0023F07703FB60FB6823F47F43FB607B689D
:1055AC001B68FA689A603B681B68B3F5005F3ED0D5
:1055BC00B3F5005F00F28780B3F5805F00F0858063
:1055CC00B3F5805F7FD8702B1AD0702B7BD8602BF3
:1055DC0050D0602B77D8502B3CD0502B73D8402B0D
:1055EC0058D0402B6FD8302B64D0302B6BD8202B5D
:1055FC0060D0202B67D8002B5CD0102B5AD062E0E7
:10560C007B6818683B6899683B685A683B68DB683C
:10561C0000F05DF97B681B689B68FB60FB6843F0DE
:10562C007703FB607B681B68FA689A604EE07B68C6
:10563C0018683B6899683B685A683B68DB6800F0FF
:10564C0046F97B681B689A687B681B6842F4804249
:10565C009A603BE07B6818683B6859683B68DB687C
:10566C001A4600F0BDF87B681B685021184600F004
:10567C0014F92BE07B6818683B6859683B68DB6859
:10568C001A4600F0DBF87B681B686021184600F0B6
:10569C0004F91BE07B6818683B6859683B68DB6859
:1056AC001A4600F09DF87B681B684021184600F0F4
:1056BC00F4F80BE07B681A683B681B6819461046C7
:1056CC0000F0EBF802E000BF00E000BF7B680122B5
:1056DC0083F83D207B68002283F83C200023184689
:1056EC001037BD4680BD80B483B000AF786000BF7A
:1056FC000C37BD4680BC704780B483B000AF786077
:10570C0000BF0C37BD4680BC704780B483B000AF7F
:10571C00786000BF0C37BD4680BC704780B485B044
:10572C0000AF786039607B681B68FB607B68294A36
:10573C0093420BD07B68B3F1804F07D07B68264A2D
:10574C00934203D07B68254A934208D1FB6823F02F
:10575C007003FB603B685B68FA681343FB607B6813
:10576C001C4A93420BD07B68B3F1804F07D07B6807
:10577C00194A934203D07B68184A934208D1FB68BC
:10578C0023F44073FB603B68DB68FA681343FB60EF
:10579C00FB6823F080023B685B691343FB607B680A
:1057AC00FA681A603B689A687B68DA623B681A6828
:1057BC007B689A627B68074A934203D13B681A69FB
:1057CC007B681A637B6801225A6100BF1437BD469F
:1057DC0080BC7047002C01400004004000080040D1
:1057EC0080B487B000AFF860B9607A60FB681B6A60
:1057FC007B61FB681B6A23F00102FB681A62FB6881
:10580C009B693B613B6923F0F0033B617B681B01A7
:10581C003A6913433B617B6923F00A037B617A6924
:10582C00BB6813437B61FB683A699A61FB687A69D0
:10583C001A6200BF1C37BD4680BC704780B487B06D
:10584C0000AFF860B9607A60FB681B6A23F0100245
:10585C00FB681A62FB689B697B61FB681B6A3B6196
:10586C007B6923F470437B617B681B037A69134368
:10587C007B613B6923F0A0033B61BB681B013A6968
:10588C0013433B61FB687A699A61FB683A691A6257
:10589C0000BF1C37BD4680BC704780B485B000AFDC
:1058AC00786039607B689B68FB60FB6823F0700351
:1058BC00FB603A68FB68134343F00703FB607B68AB
:1058CC00FA689A6000BF1437BD4680BC704780B43C
:1058DC0087B000AFF860B9607A603B60FB689B688A
:1058EC007B617B6923F47F437B613B681A027B6895
:1058FC001A43BB6813437A6913437B61FB687A696B
:10590C009A6000BF1C37BD4680BC704780B487B01E
:10591C0000AFF860B9607A60BB6803F01F03012226
:10592C0002FA03F37B61FB681A6A7B69DB431A405A
:10593C00FB681A62FB681A6ABB6803F01F0379687C
:10594C0001FA03F31A43FB681A6200BF1C37BD4609
:10595C0080BC704780B485B000AF786039607B68DC
:10596C0093F83C30012B01D1022346E07B680122E5
:10597C0083F83C207B68022283F83D207B681B68FF
:10598C005B68FB607B681B689B68BB60FB6823F0F3
:10599C007003FB603B681B68FA681343FB607B6811
:1059AC001B68FA685A607B681B68164A93420ED0D3
:1059BC007B681B68B3F1804F09D07B681B68124A67
:1059CC00934204D07B681B68104A93420CD1BB688D
:1059DC0023F08003BB603B685B68BA681343BB6011
:1059EC007B681B68BA689A607B68012283F83D204B
:1059FC007B68002283F83C20002318461437BD46F0
:105A0C0080BC7047002C014000040040000800409E
:105A1C0080B483B000AF786000BF0C37BD4680BC4B
:105A2C00704780B483B000AF786000BF0C37BD46C0
:105A3C0080BC704780B582B000AF78607B68002B6B
:105A4C0001D101233FE07B6893F83D30DBB2002BA2
:105A5C0006D17B68002283F83C207868FCF7FAF8C2
:105A6C007B68242283F83D207B681B68DA687B689E
:105A7C001B6822F40052DA60786800F0A9FB7B689E
:105A8C001B681A697B681B6822F490421A617B6858
:105A9C001B685A697B681B6822F02A025A617B6872
:105AAC001B68DA687B681B6842F40052DA607B681A
:105ABC0000221A647B68202283F83D207B68202218
:105ACC0083F83E20002318460837BD4680BD80B5BC
